:020000040800F2
:10000000D0050020A901000833150008611100087F
:1000100031150008ED090008851F000800000000E8
:10002000000000000000000000000000C5160008ED
:10003000050B000800000000B91500085118000861
:10004000C3010008C3010008C3010008C301000880
:10005000C3010008C3010008C3010008C301000870
:10006000C3010008C3010008C3010008C301000860
:10007000C3010008C3010008C3010008C301000850
:10008000C3010008C3010008C3010008000000000C
:10009000000000000000000000000000C301000894
:1000A000C3010008C3010008C3010008C301000820
:1000B00013190008A1190008C3010008C3010008B2
:1000C000C3010008C3010008C3010008C301000800
:1000D000C3010008C3010008B51C000800000000AF
:1000E000C3010008C3010008C301000800000000AC
:1000F000000000000000000000000000C301000834
:1001000000000000C3010008C3010008C30100088B
:1001100000000000000000000000000000000000DF
:10012000C3010008C3010008C3010008C30100089F
:10013000C3010008000000000000000000000000F3
:10014000000000000000000000000000C3010008E3
:10015000C3010008C3010008C3010008C30100086F
:10016000C3010008C30100080000000000000000F7
:10017000000000000000000000000000000000007F
:1001800000000000C30100080000000000000000A3
:10019000C3010008DFF80CD000F03CFB004800472A
:1001A00035360008D005002006488047064800473D
:1001B000FEE7FEE7FEE7FEE7FEE7FEE7FEE7FEE717
:1001C000FEE7FEE755180008950100082DE9FE4FEF
:1001D00081EA030404F0004421F0004100944FF050
:1001E000000B23F0004350EA01045ED052EA0304FE
:1001F0005BD0C3F30A54C1F30A552C44A4F2F33480
:100200000194A0FB0254C1F3130141F48011C3F324
:10021000130343F4801301FB024400FB034E840AE2
:10022000970A44EA815447EA8357A4FB076802957A
:100230008D0A05FB07854FEA932C04FB0C54270518
:10024000029D4FEA065847EA1637B5EB08056EEBF4
:10025000070C870E920E47EA811742EA8312A7FB2A
:100260000201B6EB0B0164EB00042B0D43EA0C33E7
:100270005E1844EB1C50DA465146E7FB0201C5F319
:1002800013044FEA0B3343EA14534FEA0432019C40
:1002900043EA0603A4F10C040294009CCDE900B4E7
:1002A00000F0EBF803B0BDE8F08F00200146F9E75D
:1002B00000F0004230F000400AD0C10D01F560713D
:1002C000C0F3160042EA0151C208400711437047CB
:1002D000002001467047000030B5041E71F1000493
:1002E00004DB4FF00044404264EB0101141E73F143
:1002F000000405DB1C464FF00043524263EB04034D
:10030000994208BF904230BD01F0004330B421F063
:10031000004150EA010206D00A0DA2F56072C1F355
:100320001301002A02DC30BC00207047440F44EA6D
:10033000C104C100E01830BC00EBC25000F057B857
:1003400030B50B46014600202022012409E021FAA5
:1003500002F59D4205D303FA02F5491B04FA02F5A2
:100360002844151EA2F10102F1DC30BD2DE9F05F39
:100370000546002092469B46884606468146402414
:100380001BE0284641464746224600F020F85346E7
:100390005A46C01A914110D311461846224600F021
:1003A0004BFA2D1A67EB01084F4622460120002127
:1003B00000F042FA17EB00094E41201EA4F101049F
:1003C000DFDC484631462A464346BDE8F09F202AF6
:1003D00004DB203A21FA02F00021704721FA02F3EF
:1003E000D040C2F1200291400843194670470029CD
:1003F000A8BF7047401C490008BF20F001007047AB
:1004000010B4B0FA80FC00FA0CF050EA010404BF0A
:1004100010BC704749B1CCF1200421FA04F411FA60
:100420000CF118BF012121430843A3EB0C01CB1DA4
:100430004FEA00614FEA102042BF002010BC704715
:1004400000EBC35010440029A4BF10BC7047401CEF
:10045000490008BF20F0010010BC704710B5141E01
:1004600073F1000408DA401C41F1000192185B416D
:100470001A4301D120F0010010BD2DE9F04D924644
:100480009B4611B1B1FA81F202E0B0FA80F220325B
:10049000904600F0D1F904460F4640EA0A0041EACE
:1004A0000B0153465A46084313D0114653EA010044
:1004B00019D0C8F140025046FFF789FF05460E46A5
:1004C00050465946424600F0B7F9084305D001208E
:1004D00004E020463946BDE8F08D0020054346EA99
:1004E000E0762C4337430A986305E40AA0EB080042
:1004F0000022FD0A44EA47540A3002D50020014692
:10050000E9E7010510196941DDE90845001969416C
:10051000BDE8F04DA2E72DE9FE4F804681EA0300D9
:10052000C00F0C46009021F0004123F00045B8EBCD
:100530000200A94105D24046214690461C460B4682
:10054000024623F00040104347D0270DC7F30A00AE
:10055000C3F30A510290401A019040286BDAC3F3AA
:10056000130040F4801B0098924620B10023D2EB88
:10057000030A63EB0B0B01985946C0F14002504649
:1005800000F05AF906460D4650465946019A00F0C9
:1005900062F910EB08006141002487EA115284EAF5
:1005A000E7731A4340D0009A62B3019A012A4FEAD6
:1005B000075215DC001B61EB02014FF0004202EA1A
:1005C0000752CDE90042001C41F5801132462B460E
:1005D000FFF753FF03B0BDE8F08F40462146F9E72F
:1005E000001B61EB0201001C41F5801300185B4108
:1005F0002018A2F5001747EB030140EAD570B619A1
:100600006D4111E06D084FEA360645EAC0754FEAC4
:100610000752001B61EB0201001C41F580114908E3
:100620004FEA30000019514132462B4603B0BDE875
:10063000F04FFFF713BF0098012240000023D0EBDA
:10064000020263EBE073009821464FEAE074B8EBD6
:10065000000061EB0401E9E783F000435BE781F010
:10066000004158E72DE9F04D81EA030404F0004B06
:1006700021F0004514464FF0000A23F0004150EAF3
:10068000050220D054EA01021DD0C5F30A570246E4
:10069000C5F31303C1F31300C1F30A5640F48015E8
:1006A00043F48013A7EB0608101BD64608F2FD386A
:1006B00073EB050002D308F1010801E092185B41D9
:1006C000B8F1000F03DA00200146BDE8F08D0020EC
:1006D0004FF48011064684460EE0171B73EB0507A6
:1006E00005D3121B63EB050306434CEA010C4908D2
:1006F0004FEA300092185B4150EA0107EDD152EA0F
:10070000030012D082EA040083EA0501084305D001
:10071000101BAB4106D20122002306E000224FF05D
:10072000004302E06FF0010253101AEB06004CEB9D
:10073000085110EB0A0041EB0B01BDE8F04DFFF74B
:100740008DBE2DE9F04D00231A461B1A8A4103DBAA
:1007500000200146BDE8F08DC1F30A52C1F3130138
:1007600041F480154FF0000BD10702D100186D4104
:10077000521E0027044640F2FF11384601EB620A80
:100780003E468046024600204FF48011FFF71FFED0
:10079000C2197141BB1846EB0100B4EB030C75EBB9
:1007A000000C04D3E41A65EB000517460E46241925
:1007B00008F101006D4180463428E3DDF91946EB6C
:1007C0000600091BA84103D24FF0FF32134601E097
:1007D000002213461BEB070046EB0A51BDE8F04D23
:1007E000FFF73CBEC1F30A52C1F3130140F2FF33DD
:1007F00041F480119A4202DA00200146704740F22B
:1008000033439A42A2F2334202DC5242FFF7DFBD89
:1008100000F012B8064C074D06E0E06840F0010316
:1008200094E8070098471034AC42F6D3FFF7B6FCC3
:100830005837000878370008202A04DB203A00FAED
:1008400002F1002070479140C2F1200320FA03F327
:10085000194390407047202A06DBCB17203A41FA13
:1008600002F043EAE07306E041FA02F3D040C2F13D
:100870002002914008431946704700002DE9F041DD
:100880003248007800285ED00021084602F096FC2D
:10089000002002F019FB2D4C0546400004F1240411
:1008A0004FF0010610D06F4239B2002002F086FCF2
:1008B000002D00DB2F46B9B2E08900F085FA06EB87
:1008C000E571A08900F080FA0021012002F076FC99
:1008D000012002F0F9FA0546400010D06F4239B20B
:1008E000012002F06BFC002D00DB2F46B9B2608ABC
:1008F00000F06AFA06EBE571208A00F065FA002143
:10090000022002F05BFC022002F0DEFA0546B0F5A0
:100910007A7F18D015F57A7F15D0C5F57A7001B2B7
:10092000022002F04BFC002D01DB284600E068426B
:1009300081B2E08A00F048FA06EBE571A08ABDE8D2
:10094000F04100F041BABDE8F08100005400002001
:100950002DE9F0470027234C3E463D46012004F197
:10096000200804F1400900BF04EB400234F81010E5
:1009700022F8021C08EB400138F8102021F8022C64
:1009800039F8102009EB4001401CC0B221F8022CBC
:100990001028E9D3002002F097FAE083012002F04A
:1009A00093FAA8F81E00022002F08EFAA9F81E00A1
:1009B000494600204FEA080234F910301F4432F94A
:1009C00010301E4431F91030401CC0B21D441028B4
:1009D000F2D3054839114181311181812911C18139
:1009E000BDE8F0870001002054000020FEE7000071
:1009F00010B500F085F800F045F850B10C4881784A
:100A0000012901D0012100E00021817009A001F03D
:100A1000BBFA00F019F8002808D000F033F80028DD
:100A200004D1BDE8104005A001F0AEBA10BD000031
:100A300024000020343434340D0A000034343434BB
:100A4000206C6F6E670D0A0010B54FF400510B4813
:100A500000F0D6FA68B10021094840F6B833428860
:100A60009A4208D939B1417829B100214180012049
:100A700010BD0121F0E7002010BD00000008024079
:100A8000500000200148007870470000500000200E
:100A900010B54FF40051074800F0B2FA38B1002108
:100AA0000548427821EA02020270417010BD01211E
:100AB000F6E7000000080240500000201CB50121AC
:100AC000042000F089FD4FF40050009000208DF8C4
:100AD000040002218DF805108DF806008DF807102E
:100AE0006946024800F02BFA1CBD000000080240D5
:100AF00002484188491C4180704700005000002096
:100B0000FFF7C6BF704700000C490A880C490988E6
:100B100060B1012810D14EF6EE6009B11AB107E0BC
:100B2000824209D006E0814204D005E022B109B139
:100B3000AB20704701207047002070470000040878
:100B40000000060810B50221302000F05DF90928E8
:100B50000BD10021054800F0B3F9092805D1022185
:100B6000BDE81040382000F04FB910BD0000040867
:100B70002DE9F041DFF80C810024661EB8F8002052
:100B8000414F3888414D4249330CEAB3A2F6EE6238
:100B9000B2F5604217D002F6EF62B2F5005F0ED1F7
:100BA00000286BD0A0F56E41EE3908D1022130202B
:100BB00000F02AF9092804D1002138460EE0FFF799
:100BC000C1FFBDE8F08160B19842F8D10221382020
:100BD00000F01AF90928F4D10021404600F070F91C
:100BE000EFE70F46B8F8061035F81400814200D13F
:100BF00026B2B4420DD0264900F09AF8012808D058
:100C000035F81400398800E011E000F0B5F8092843
:100C1000D7D1641CA4B2202CE4D30021404600F0BC
:100C20004FF90928CDD106E000F0EEF8C9E7002819
:100C3000C5D0984202D102213820F5E78846F988CC
:100C400035F81400814200D126B2B4420CD01049CC
:100C500000F06EF8012807D035F81400B8F800103D
:100C600000F08AF80928ACD1641CA4B2202CE6D389
:100C70000021384600F024F90928A2D102213020B1
:100C8000D2E70000000004080000060878000020F9
:100C9000B80000202DE9F047064600248846204D84
:100CA0002046FFF731FF012803D020B1AB20BDE87B
:100CB000F087382701E01B4D30274EF6EE612846BD
:100CC00000F0FEF80928F2D14146304600F054F811
:100CD0000928ECD1DFF85080DFF8509038F8142064
:100CE000B2420DD01149104600F022F8012807D079
:100CF00038F81400B9F8001000F03EF80928D6D1F1
:100D0000641CA4B2202CE9D30221384600F07CF800
:100D10000928CCD12846BDE8F047002100F0D0B822
:100D2000000004080000060878000020B800002039
:100D30002DE9F04106460D4601240D4F0020FFF736
:100D4000E3FEAB2812D00B4A07EB404102EB4042D6
:100D5000891C08E01088B04204D132F8020C2880C7
:100D6000002402E0121F8A42F4D82046BDE8F08138
:100D700000000408FEFF050870B505460E46104C3D
:100D80000120FFF7C1FEAB280CD00E4904EB404414
:100D900001EB404003E02168491C04D0241D84423B
:100DA000F9D3802070BD3146204600F089F809282B
:100DB000F8D12946A01CBDE8704000F081B80000C1
:100DC00000000408FEFF050870B50C460546FFF755
:100DD000D3FF802805D121462846BDE87040FFF7A3
:100DE00059BF70BD10B500F089F8FFF7C1FEBDE82E
:100DF0001040024902A001F0C7B800005E360008AA
:100E000025730D0A0000000070B50646002529B1C3
:100E1000012927D0022928D04FF4407500F080F82E
:100E200009281ED1124C206820F4407020602068F0
:100E300028432060206820F0F8002060206846F0F9
:100E4000020108432060206840F48030206000F0F8
:100E500067F8216821F002012160216821F0F80182
:100E6000216070BD4FF48075D8E74FF40075D5E769
:100E7000103C02400D4909200A68D20301D5012027
:100E800070470A68D20601D5062070470A68D20565
:100E900001D5022070470A6812F0E00F01D0072048
:100EA000704709688907FBD5082070470C3C024051
:100EB0000248016841F0004101607047103C024067
:100EC00070B50D46064600F02BF8092813D10A4CE0
:100ED000206820F440702060206840F4807020601A
:100EE000206840F001002060358000F019F821688A
:100EF00021F00101216070BD103C024005480068EE
:100F0000002805DA034804490C38016003490160F0
:100F100070470000103C024023016745AB89EFCDCC
:100F200008B509208DF80000FFF7A4FF8DF8000038
:100F30009DF800000128F7D09DF8000008BDF0B52D
:100F40000023012403270D6804FA03F2154095429B
:100F500042D1D0F800C05E0007FA06F52CEA050C75
:100F6000C0F800C091F804C0D0F800E00CFA06FC0C
:100F70004CEA0E0CC0F800C091F804C0BCF1010F9F
:100F800002D0BCF1020F1FD1D0F808C02CEA050C2A
:100F9000C0F808C091F805C0D0F808E00CFA06FCCB
:100FA0004CEA0E0CC0F808C0D0F804C02CEA020CC1
:100FB000C0F804C0426891F806C00CFA03FC1FFA9E
:100FC0008CFC42EA0C024260C268AA43C260CA7941
:100FD000C568B2402A43C2605B1C102BB3D3F0BD7E
:100FE0004B07DB0E9A40C90810B500EB8100016A7F
:100FF0000F249C40A1430162016A1143016210BDAC
:101000000246002012690A4200D00120704742695E
:101010004A404261704700002DE9F04128480078BD
:1010200000284BD0002002F019F8254C054640005E
:1010300004F124044FF0010610D06F4239B20020B1
:1010400002F006F9002D00DB2F46B9B26088FFF7E9
:10105000BBFE06EBE5712088FFF7B6FE012001F02C
:10106000FDFF0546400010D06F4239B2012002F06A
:10107000EFF8002D00DB2F46B9B2E088FFF7A4FEA1
:1010800006EBE571A088FFF79FFE022001F0E6FF66
:101090000546400012D06F4239B2022002F0D8F863
:1010A000002D00DB2F46B9B26089FFF78DFE06EBFD
:1010B000E5712089BDE8F041FFF786BEBDE8F0810B
:1010C000540000202DE9F0470027234C3E463D46C2
:1010D000012004F1200804F1400900BF04EB4002A4
:1010E00034F8101022F8021C08EB400138F81020E8
:1010F00021F8022C39F8102009EB4001401CC0B245
:1011000021F8022C1028E9D3002001F0A7FFE0838A
:10111000012001F0A3FFA8F81E00022001F09EFFAD
:10112000A9F81E00494600204FEA080234F91030A1
:101130001F4432F910301E4431F91030401CC0B247
:101140001D441028F2D30548391181803111C18026
:1011500029110181BDE8F0876001002054000020C2
:10116000FEE70029018802D041F4806101E021F40A
:1011700080610180704702460020938A128B43EA07
:10118000024323F07F42914300D1012070470029A0
:10119000018802D041F0010101E021F0010101804C
:1011A000704700000D4910B5884202D101214C055D
:1011B0000AE00B49884202D101218C0504E009496B
:1011C00088420AD10121CC05204600F01DFA2046B4
:1011D000BDE81040002100F017BA10BD00540040D7
:1011E00000580040005C00400029018802D041F412
:1011F000807101E021F4807101807047002901882D
:1012000002D041F4007101E021F4007101807047C7
:101210000CB50246002000920A0F21F07F41019296
:1012200002D0009A143202E0009A090C183200929F
:1012300012680A4200D001200CBD00007FB50446B0
:1012400080880D4620F03F06684600F0E9F92749FE
:101250000298B0FBF1F189B20E43A680228822F0F9
:1012600001022280224B2A689A421BD85200B0FB0E
:10127000F2F080B2042800D20420491C2184A0830B
:10128000208840F00100208021884FF6F530014091
:10129000A8886A89104308432080A88929890843BF
:1012A00020817FBDEB88A3F53F46FF3E0BD002EBCC
:1012B000C20303EB0212B0FBF2F080B240F48040B4
:1012C000020506D007E002EB4202B0FBF2F080B26A
:1012D000F6E740F001004FF4967251434FF47A72F2
:1012E000B1FBF2F140F40040C7E7000040420F00BC
:1012F000A0860100008AC0B2704712B141F001011E
:1013000001E001F0FE01018270470182704700296F
:10131000018802D041F4004101E0C1F30E010180D7
:10132000704700001CB50121084600F055F9002067
:101330008DF8060001208DF807008DF804002020AC
:10134000009003208DF8050069460248FFF7F7FD7D
:101350001CBD0000000002402DE9F04186B00027CE
:10136000724EADF80070ADF80470ADF80870ADF8CD
:101370000C70ADF81070ADF8147030783D4606F181
:101380002404002848D0FFF7B9FD4FF6FF7800BFCE
:1013900034F817004146FFF717FD7F1CFFB2202FDE
:1013A000F6D360880021FFF70FFD20880121FFF7A9
:1013B0000BFDE0880021FFF707FDA0880121FFF762
:1013C00003FD60890021FFF7FFFC20890121FFF761
:1013D000FBFCE0890021FFF7F7FCA0890121FFF762
:1013E000F3FC608A0021FFF7EFFC208A0121FFF760
:1013F000EBFCE08A4FF47A71FFF7E6FCA08A01214A
:10140000FFF7E2FCFFF708FEFFF738FAFFF750FDA1
:1014100035700120707002E0707800287ED020883E
:1014200003A9FFF785FC60886946FFF781FCA08867
:1014300004A9FFF77DFCE08801A9FFF779FC20896A
:1014400005A9FFF775FC608902A9FFF771FCBDF8DB
:101450000C000128BDF8000000D14042ADF80000AA
:1014600001B2002001F0F4FEBDF810000128BDF823
:10147000040000D14042ADF8040001B2012001F0A7
:10148000E7FEBDF814000128BDF8080000D1404275
:10149000ADF8080001B2022001F0DAFEA08903A92C
:1014A000FFF746FCE0896946FFF742FC208A04A961
:1014B000FFF73EFC608A01A9FFF73AFCA08A05A964
:1014C000FFF736FCE08A02A9FFF732FCBDF80C00FA
:1014D0000128BDF8000000D14042ADF8000001B283
:1014E000002001F06BFEBDF810000128BDF80400DB
:1014F00000D14042ADF8040001B2012001F05EFECF
:10150000BDF814000128BDF8080000D14042ADF834
:10151000080000F57A7001B2022000E002E001F05C
:101520004DFE757006B0BDE8F0810000540000204B
:10153000FEE7704730B50F22C47801780123FCB173
:10154000144C246801F1E02104F4E064C4F5E06483
:10155000C4F30724C4F10405E2404478AC40857824
:10156000154025432A0181F80024007800F01F016E
:101570008B404009800000F1E020C0F8003130BD10
:1015800001F01F0083404809800000F1E020C0F80E
:10159000803130BD0CED00E00907090E002806DAA5
:1015A00000F00F0000F1E02080F8141D704700F1FA
:1015B000E02080F800147047704710B500F0BAFCC6
:1015C00001F0CCFDFFF7C4F9FFF77CFDFFF7C4FE87
:1015D000BDE8104000F068BA044A0029116801D043
:1015E000014300E081431160704700003038024041
:1015F000044A0029116801D0014300E081431160D1
:101600007047000040380240044A0029116801D0A8
:10161000014300E081431160704700002038024020
:1016200070B5204A1168204C11F00C0104D06610EE
:10163000042903D0082903D004601BE0066019E0E8
:101640001849091F0B68C3F380550B6803F03F036B
:1016500015B1B6FBF3F301E0B4FBF3F30C680968D2
:10166000C4F388146343C1F30141491C4900B3FB2F
:10167000F1F1016011680F2303EA11110B4B5C5C5F
:101680000168E14041601468072505EA94241C5D67
:1016900021FA04F48460126805EA52329A5CD1405F
:1016A000C16070BD083802400024F400140000201E
:1016B000034A116821F4E0510143116070470000B2
:1016C00008380240704700000CB500202649019000
:1016D00000900A6842F480320A604FF4A0430A681E
:1016E00002F400320092019A521C0192009A12B93F
:1016F000019A9A42F3D10A68920332D501200090F0
:1017000019484030026842F080520260174802686F
:1017100042F44042026014480830026802600268E5
:101720000260026842F480520260031F104A1A608D
:101730000A6842F080720A600A689201FCD50D4A7C
:1017400040F202711160016821F00301016001683B
:1017500041F0020101600168C1F381010229FAD15F
:101760000CBD00900CBD000000380240007000402D
:1017700008544107003C02407FB56846FFF750FF20
:1017800017A000F001FC1EA0009900F0FDFB23A0B3
:10179000019900F0F9FB25A0029900F0F5FB27A0C4
:1017A000039900F0F1FB29484FF47A710068B0FB0F
:1017B000F1F0401EB0F1807F10D24FF0E024606164
:1017C00065170F212846FFF7E7FE0020A0610720DC
:1017D000206101212846FFF7DFFE7FBDFEE7000004
:1017E0003D3D3D3D3D3D3D3D3D3D3D3D3D3D3D3D29
:1017F0003D3D3D3D3D3D3D3D3D3D3D0D0A00000033
:10180000535953434C4B5F4672657175656E6379EE
:10181000203D20256420487A0A0D000041484220DE
:101820003D20256420487A0A0D00000041504231D5
:10183000203D20256420487A0A0D000041504232A4
:10184000203D20256420487A0A0D00000000002079
:1018500070470000124810B5016841F47001016042
:101860001048016841F0010101600E4A0021083270
:10187000116002680C4B1A400260031D0B4A1A608B
:10188000026822F48022026006480C300160FFF7F3
:101890001BFF03494FF000608039086010BD000055
:1018A00088ED00E000380240FFFFF6FE1030002413
:1018B0007FB54FF48050FFF7FBFE01210846FFF78C
:1018C00097FE41F6573001900B20ADF80000002440
:1018D0004FF08045ADF80840ADF802406946284613
:1018E00000F0A4F801221146284600F096F80121E4
:1018F000284600F07CF81C208DF80C008DF80D4077
:101900008DF80E4001208DF80F0003A8FFF712FE9E
:101910007FBD10B501218C07204600F072F8002829
:101920000BD00121204600F05FF800F0B9F9FFF775
:10193000DFF8BDE81040FFF75BB810BD7FB54FF48E
:101940008050FFF7B5FE01210220FFF751FE41F65E
:10195000573001900B20ADF8000000240F4DADF87A
:101960000840ADF802406946284600F05FF80122C1
:101970001146284600F051F80121284600F037F8BA
:101980001D208DF80C008DF80D408DF80E400120C3
:101990008DF80F0003A8FFF7CDFD7FBD00040040C8
:1019A00070B50E4D0121284600F02BF8002814D008
:1019B0000B4C2068401C2060B0F57A7F07D30120D3
:1019C000606020210748FFF722FB002020602846A6
:1019D000BDE87040012100F007B870BD0004004070
:1019E0002C00002000000240C943018270470029FA
:1019F000018802D041F0010101E021F001010180E4
:101A0000704702460020138A92890B4202EA0102C3
:101A100002D0002A00D001207047002A828901D01C
:101A20000A4300E08A4382817047000030B5028893
:101A3000164B174C98420DD0A0420BD0B0F1804FFE
:101A400008D0144DA84205D0134DA84202D0134D22
:101A5000A84203D122F070054A882A43104DA842BB
:101A600006D0104DA84203D022F440750A892A43BB
:101A700002804A68C2620A880285984201D0A04268
:101A800001D1897A01860121818230BD00000140A7
:101A9000000401400004004000080040000C004029
:101AA000001000400014004010B5624C2DED048B76
:101AB000A08910FB00F1E08910FB001000EE100A75
:101AC000B8EEC00A10EE100AFEF7F2FB41EC100B64
:101AD00000F0EEFB51EC100BFEF716FC08EE100ABE
:101AE000608910FB00F1E08910FB001000EE100A85
:101AF000B8EEC00A10EE100AFEF7DAFB41EC100B4C
:101B000000F0D6FB51EC100BFEF7FEFB08EE900A3E
:101B1000B4F90A0000EE100AF8EEC00A80EE880A56
:101B200010EE100AFEF7C4FB41EC100B00F054FA63
:101B30009FED419B51EC100B53EC192BFEF746FB2C
:101B4000FEF7E2FB6061B4F90C0000EE100AF8EE5B
:101B5000C00A80EEA80A10EE100AFEF7A9FB41ECBD
:101B6000100B00F039FA53EC192B51EC100BFEF767
:101B70002DFBFEF7C9FB00EE100A04F1200184EDF5
:101B8000040AB4F9040000EE900A081FF8EEE00A17
:101B9000C4ED060A01F0D8FC2948007800286069E5
:101BA00011D0FEF785FB41EC100B26A053EC102B57
:101BB00000F0EAF92069FEF77BFB41EC100B25A051
:101BC00053EC102B1AE0FEF773FB41EC100B1DA039
:101BD00053EC102B00F0D8F92069FEF769FB41ECBB
:101BE000100B1CA053EC102B00F0CEF9E069FEF7AF
:101BF0005FFB41EC100B1BA053EC102B00F0C4F961
:101C0000B4F90E30B4F90C20B4F90A1019A000F0A0
:101C1000BBF9B4F90830B4F90620B4F904101AA0DD
:101C200000F0B2F9BDEC048B1CA0BDE8104000F040
:101C3000ABB9000054000020FBEB1516DCA54C40AE
:101C40002600002050697463683A25382E336C668C
:101C50002C000000526F6C6C3A25382E336C662CC9
:101C600000000000416E676C653A25382E336C66C3
:101C70002C0000004163633A2535642C2535642C23
:101C80002535642C000000004779726F3A253564D1
:101C90002C2535642C2535642C0000000D0A00002D
:101CA00003484168002902D04168491E41607047DD
:101CB0002400002070B50E4D40F2255421462846E0
:101CC00000F0A3F8002812D02146284600F01EF8A4
:101CD000084C207800280AD1284600F023F906494C
:101CE0000870097805A000F04FF90120207070BD40
:101CF00000440040250000202400002074656D7021
:101D0000203D2030782578200A0D00000A0A0121A4
:101D10009140C943018070470029818902D041F474
:101D2000005101E021F4005181817047F0B501219B
:101D300087B00846FFF750FC01214804FFF758FC24
:101D40002B4F072202213846FFF74AF907220321C9
:101D50003846FFF745F900248DF8064001268DF836
:101D60000760022504208DF8045000908DF805507E
:101D700069463846FFF7E3F8082000908DF80450D4
:101D800069463846FFF7DBF84FF4E1300290ADF8D2
:101D900010400C20174DADF80C40ADF81200ADF816
:101DA0000E40ADF8144002A9284600F065F8012263
:101DB00040F22551284600F047F84021284600F01F
:101DC0001DF80028F9D026208DF818008DF819404C
:101DD0008DF81A408DF81B6006A8FFF7ABFB0121B8
:101DE0002846FFF799FF044800F0CEF807B0F0BD91
:101DF000000002400044004008370008024600206E
:101E000012880A4200D00120704730B501F01F024D
:101E100001240025C1F3421304FA02F2012B0FD072
:101E2000022B0FD0838A4FEA11210088134204FA53
:101E300001F400EA040001D000B10125284630BDBC
:101E40008389F0E7038AEEE710B5C1F3421301F08E
:101E50001F040121A140012B07D0022B07D0143011
:101E6000002A026805D00A4304E00C30F8E710307D
:101E7000F6E78A43026010BD7FB50446008A0D462E
:101E800020F44051E88808432082A08941F20C6187
:101E90008843A9882A8911436A8902431143A18191
:101EA000A08A20F44071A8890843A0826846FFF701
:101EB000B7FB1A48844202D01948844201D10398E2
:101EC00000E00298A189090400EBC00101EB0010B9
:101ED000296801D5490000E08900B0FBF1F26420D7
:101EE000B2FBF0F109010B096FF018056B4302EB2F
:101EF0008302A3891D044FF0320306D503EBC2020F
:101F0000B2FBF0F000F0070005E003EB0212B2FBB9
:101F1000F0F000F00F00084320817FBD0010014069
:101F2000001401408088C0F308007047C1F3080125
:101F3000818070470F484178002909D0027800213C
:101F4000312A06D05A2A08D07A2A06D04170417028
:101F50007047094B01221A70F9E7BFF34F8F07480A
:101F60000168074A01F4E06111430160BFF34F8F3C
:101F700000BFFDE724000020540000200CED00E02D
:101F80000400FA05FEE700000FB4054B10B503A9E5
:101F9000044A029800F038FB10BC5DF814FB000006
:101FA00025350008F800002003B40198410000988E
:101FB00050EAC12018BF04204A0D18BF40F00100AC
:101FC00040F2FF72B2EB515F08BF40F002000128FF
:101FD00008BF052002B0704770B59B482DED020B7D
:101FE0002DED068B079D25F00044A04218DC974894
:101FF000844202DC0AD1069840B19DED060BBDEC8F
:10200000068B02B0BDE8704000F00BBA002DCCBFCB
:102010009FED8F0B9FED900BBDEC068B02B070BD5A
:102020008F48A04215DD8F48A042D8BF4FF0FF3443
:1020300058DD9DED060B51EC100BFFF7B5FF0428A2
:1020400008BF00F0F9F99DED060BBDEC068B02B060
:1020500070BD9DED060B51EC100B01F056FACDE969
:10206000060181489FED828BA0423CDD8248A04260
:102070001FDD00249FED82AB9DED060B53EC1A2B68
:1020800051EC100BFEF747FA9DED060B41EC190BD6
:1020900053EC1A2B51EC100BFEF798F853EC182B5D
:1020A000FEF7DAFA53EC192BFEF7DCFACDE906015C
:1020B00049E09DED060B012453EC182B51EC100B5D
:1020C000FEF729FA9DED060B41EC190B53EC182B8A
:1020D00051EC100BFEF7C0FA53EC192BFEF7C2FAC5
:1020E000CDE906012FE06848A0421FDD02249FEDE4
:1020F000689B9DED060B53EC192B51EC100BFEF772
:1021000065F853EC182BFEF706FA9DED060B41EC33
:10211000180B53EC192B51EC100BFEF79DFA53ECF6
:10212000182BFEF79FFACDE906010CE09DED060B9A
:10213000032453EC102B9FED580B51EC100BFEF7C2
:1021400091FACDE906019DED060B53EC102B51ECF5
:10215000100BFEF73BF841EC180B53EC182BFEF775
:1021600035F841EC190B4E480621B0EE490AF0EE65
:10217000690A784400F0D9F853EC182B51EC100B95
:10218000FEF724F841EC180B4648B0EE490AF0EE91
:10219000690A0521784400F0C8F853EC192B51EC7A
:1021A000100BFEF713F841EC100B51EC180B53EC2D
:1021B000102B002C0EDAFEF7AEF99DED061B53EC4A
:1021C000112BFEF703F89DED061B53EC112BFEF7C8
:1021D00046FA35E0FEF79FF99DED061B53EC112BF7
:1021E000FDF7F4FF41EC100B2F48784400EBC400DE
:1021F00090ED001B51EC100B53EC112BFEF72CFA59
:102200009DED061B53EC112BFEF726FA41EC100B4B
:102210002648784400EBC40090ED001B51EC100BF5
:1022200053EC112BFEF71BFA41EC100B002DA2BF53
:10223000BDEC068B02B070BD51EC100B81F000417B
:1022400041EC100B01E70000000010440000F07F9B
:10225000182D4454FB21F93F182D4454FB21F9BF9C
:102260000000DC3F0000203E0000F33F00000000C3
:10227000000000000000F03F0000E63F000000000A
:10228000000000000000004000800340000000004B
:10229000000000000000F83F000000000000F0BF58
:1022A0006215000018150000A21400005A14000066
:1022B00000B52DED048BB0EE409AF0EE609A83B03D
:1022C00051EC190BFEF73DFA41EC180B18EE100A11
:1022D00018EE901A8DED008B002818BF01200843DE
:1022E00020F00040C0F17F6000F1E040C00F14D04A
:1022F00019EE101A19EE900A8DED009B002918BFF7
:102300000121084320F00040C0F17F6000F1E0406F
:10231000C00F04BF012000F0AFF8B0EE480A03B0D0
:10232000F0EE680ABDEC048B00BD70B504462DEDDF
:10233000028B4D1E00EBC500B0EE408AF0EE608AC5
:1023400090ED000B35F0060017D053EC182B51EC34
:10235000100BFDF73BFF41EC100B6D1E04EBC500AD
:1023600090ED001B51EC100B53EC112BFEF7D3F842
:1023700041EC100B35F00600E7D1022D36D0042DCC
:102380001CD0062D1CBFBDEC028B70BD53EC182B6E
:1023900051EC100BFDF71AFF94ED0A1B53EC112BB7
:1023A000FEF7B9F853EC182BFDF710FF94ED081B5E
:1023B00053EC112BFEF7AFF841EC100B53EC182B3C
:1023C00051EC100BFDF702FF94ED061B53EC112BA3
:1023D000FEF7A1F853EC182BFDF7F8FE94ED040B73
:1023E00053EC102BFEF797F841EC100B53EC182B25
:1023F00051EC100BFDF7EAFE94ED021B53EC112B90
:10240000FEF789F853EC182BFDF7E0FE94ED001B66
:1024100053EC112BFEF77FF8BDEC028B41EC100B57
:1024200070BD10B553EC102B51EC100BFEF773F888
:1024300041EC100B10BD00009FED050B10B553ECE7
:10244000102B51EC100BFDF7C1FE41EC100B10BD31
:10245000000000000000001002E008C8121F08C1C0
:10246000002AFAD170477047002001E001C1121F15
:10247000002AFBD170470000014908607047000046
:10248000FC0000202DE9FF5F82B00021DDE904306F
:10249000020DDDF840B0034318D044F61050A2F20C
:1024A000FF3242431514119801281FD0A5EB0B00F1
:1024B000401C5FEA000A4FF000064E4FDFF83891EB
:1024C000B046504615D5CAF1000413E01198012416
:1024D0004AA3012801D16FEA0B010298119AC0E9C1
:1024E0000031C0E9024206B0BDE8F09FCBF1000028
:1024F000DFE704460021404A491842EB0450CDE989
:10250000001012E0E00707D032463B4640464946FD
:10251000FDF75CFE8046894632463B46104619462A
:10252000FDF754FE06460F466410002CEAD1DDE9A3
:102530000401DDE90023BAF1000F06DAFDF746FEDB
:1025400042464B46FDF742FE05E0FEF78BF8424659
:102550004B46FEF787F804460E460022284BFDF74F
:10256000BBFE03D84FF0FF30014607E00022254BA9
:1025700020463146FDF7CFFFFEF734F9102409E07D
:10258000002C0ADB0A220023FDF7F0FE039B303209
:102590001A55641E50EA0102F2D1641C039AC4F178
:1025A00011031444119A012A03D0012208430DD1CA
:1025B0000AE0084304D000204FF0110B119072E79D
:1025C000A3EB0B056D1E0DE05B4504DD4FF0000233
:1025D00005F1010504E003DA4FF00002A5F1010561
:1025E000002AECD002981199C0E90231C0E90045F7
:1025F00079E70000000014400000F03F30000000C8
:102600000000F0430000E03F2DE9FF4F95B09B46EE
:102610008946064600250FE2252877D10024274663
:10262000F84A0121059400E0044316F8013F203BDD
:1026300001FA03F01042F7D130782A2811D06FF058
:102640002F033078A0F13002092A16D8059A44F0F9
:10265000020402EB820203EB42021044761C059056
:10266000EFE759F8042B0592002A03DA504244F4AC
:102670000054059044F00204761C30782E2816D1C0
:1026800016F8010F44F004042A280DD06FF02F0231
:102690003078A0F13003092B09D807EB870302EB50
:1026A0004303C718761CF3E759F8047B761C30788F
:1026B0006C280FD006DC4C2817D068280DD06A286B
:1026C00014D104E0742810D07A280FD10DE044F41E
:1026D00000140AE044F4801401E044F440147278D9
:1026E000824202D104F58014761C761C307866286C
:1026F0000BD013DC582877D009DC002875D045288A
:10270000F6D04628F4D047281AD19DE118E0632876
:1027100035D0642879D0652812D195E1702873D01E
:1027200008DC6728F1D069286FD06E280DD06F289B
:1027300006D1B5E073282CD0752875D0782874D0D0
:102740005A46179990476D1C75E1C4F30250022850
:1027500009D003280DD0D9F8001004280DD00D6041
:1027600009F1040967E1D9F80010EA17C1E900523C
:10277000F6E7D9F800100D80F2E70D70F0E719F8D0
:10278000041B8DF8001000208DF80100EA4601209E
:1027900003E059F804AB4FF0FF3061074FF0000140
:1027A00002D40DE008F101018846B9420FDA8045F4
:1027B000F8DB1AF808100029F4D108E008F101014B
:1027C00088468142FADB1AF808100029F6D10598EC
:1027D0005B46A0EB080721463846179A00F094FAAA
:1027E000284400EB080507E04DE029E10DE01AF868
:1027F000010B5A4617999047B8F10108F7D25B468A
:1028000021463846179A13E142E00A220092C4F3A7
:1028100002524FF0000A022A08D059F804CB032ACA
:102820004FEAEC710AD00DE029E02AE009F1070136
:1028300021F00702F2E802C1914609E00FFA8CFC90
:102840004FEAEC71042A03D14FFA8CFC4FEAEC7189
:10285000002907DA0A460021DCF1000C61EB0201D5
:102860002D2202E0220504D52B228DF8042001221E
:1028700003E0E20701D02022F7E7904659E00A2161
:1028800002E010220DE010214FF0000A00910BE051
:1028900010224FF0000A44F004040827009203E0DD
:1028A00008224FF0000A0092C4F30252022A05D017
:1028B00059F804CB0021032A08D009E009F10701E7
:1028C00021F00702F2E802C1914605E01FFA8CFCF4
:1028D000042A01D10CF0FF0C4FF00008220728D584
:1028E000702806D0009B83F0100353EA0A0305D03A
:1028F0000EE040228DF80420012208E05CEA01028B
:1029000006D030228DF804208DF805000222904672
:10291000009B83F0080353EA0A030AD15CEA010230
:1029200001D1620705D530228DF804204FF001084F
:102930007F1E582804D034A003900EA802900DE00A
:1029400036A0F9E753466046009AFDF70FFD84462E
:102950000398825C0298401E029002705CEA0100BB
:10296000F0D1029806A9081A00F1200A600702D5E2
:1029700024F4803400E00127574502DDA7EB0A006C
:1029800000E0002000EB0A01009005984144401A45
:102990000590E00306D45B462146179A059800F09F
:1029A000B3F90544002706E001A85A46C05D17990F
:1029B00090476D1C7F1C4745F6DBE0030CD55B465A
:1029C0002146179A059800F09FF9054404E030204D
:1029D0005A46179990476D1C0099481E009000298F
:1029E000F5DC08E0029802995A460078491C0291E9
:1029F000179990476D1CBAF10001AAF1010AF1DCA8
:102A000065E10000092801003031323334353637B2
:102A1000383961626364656600000000303132332A
:102A200034353637383941424344454600000000CA
:102A300000F058F90544761C307800287FF4ECAD9E
:102A400019B02846BDE8F08F620700D4062709F1C7
:102A5000070222F0070CFCE80223E14603F00048DD
:102A60005FEA080C02D00FF2702C0DE05FEA045C04
:102A700002D50FF2682C07E05FEAC47C02D00FF2A7
:102A8000602C01E0AFF2700C4FF0FF3823F00043F0
:102A9000CDF850C065280CD006DC452809D0462862
:102AA0001DD047283DD13DE0662818D067287ED14B
:102AB00038E00021112F01DB112000E0781CCDE966
:102AC000000106A90EA8FFF7DDFCDDE90F010E9A53
:102AD00003910021009207F1010A04914DE04FF0AB
:102AE00000400097CDE9011006A90EA8FFF7CAFC27
:102AF000DDE90F0203920E9B11990022DDF80CA074
:102B00000093049211B9791C00EB010AB7EB0A009B
:102B100004D4C0F1FF3007F1010A0490AAEB0700CA
:102B2000019044E0012F00DA01270021112F01DD7F
:102B3000112000E03846CDE9000106A90EA8FFF7F4
:102B4000A1FCDDE90F010E9A03910021049100928E
:102B5000BA4621070CD40399514500DA8A46BAF1E6
:102B6000010F05DD009AAAF10101515C302908D05E
:102B7000B84202DA10F1040F06DA0121CDE90110A2
:102B800015E0AAF10101E9E7002805DC04990144F8
:102B90000491AAEB000102E0411C514500DD8A4688
:102BA0000499401A401C01904FF000400290200709
:102BB00004D40198504501DBCDF8048000208DF845
:102BC0004F0002980DF14F07B0F1004F25D02B2098
:102BD0000E9002984FF0020800280CDA4042029052
:102BE0002D200E9007E00A210298FDF7A9FB303155
:102BF000029007F8011DB8F10001A8F10108F2DC0C
:102C000002980028EFD1791E0E980870307800F0F5
:102C1000200040F0450007F8020D12A8C01B00F18B
:102C200007081498007800B1012000EB0A01019810
:102C300001EBE07105984144401A401E0590E00305
:102C400006D45B462146179A059800F05DF80544C6
:102C50001498007818B15A46179990476D1CE003F4
:102C600024D55B462146179A059800F04DF8054497
:102C70001CE00498002807DBDDE90301884203DD3E
:102C80000098405C179901E0179930205A46904708
:102C9000049805F10105401C04900198401E019024
:102CA00004D12E205A46179990476D1CBAF10001A5
:102CB000AAF1010ADDDC05E017F8010B5A46179965
:102CC00090476D1CB8F10001A8F10108F4DC5B46E7
:102CD0002146179A0598ABE62D0000002B00000056
:102CE000200000002DE9F041044600251E4617464D
:102CF000880404D405E039462020B0476D1C641ECA
:102D0000F9D52846BDE8F0812DE9F04104460025BB
:102D10001E469046C80301D5302700E020278804CE
:102D200004D505E041463846B0476D1C641EF9D510
:102D30002846BDE8F08108B56B4601221221D62055
:102D400000F002FA9DF800006B4640F004008DF898
:102D5000000001221221D62000F0A0FA6B460122C9
:102D60000A21D62000F0F0F99DF800006B4620F013
:102D70007F008DF8000001220A21D62000F08EFA93
:102D800008BD000030B500242DED028B87B09FED0B
:102D90004A8A06AB01221E21D62000F0D5F9204632
:102DA000641CE4B21E2803D89DF81800C007F0D0B8
:102DB00006AB01221021D62000F0C6F99DF81800BC
:102DC00010F00C008DF818000ED004280AD0082846
:102DD00002D00C2808D102E09FED388A04E09FED74
:102DE000388A01E09FED378A01AB01222921D620E4
:102DF00000F0AAF96B4601222821D62000F0A4F9A0
:102E00009DF800009DF8041003AB40EA012005B2D4
:102E100001222B21D62000F097F902AB01222A21B2
:102E2000D62000F091F99DF808009DF80C1005AB34
:102E300040EA012004B201222D21D62000F084F9BD
:102E400004AB01222C21D62000F07EF900EE105AAE
:102E50009DF810009DF81410B8EEC00A40EA012059
:102E600003B220EE080ABDEEC00A10EE100A01B24D
:102E7000002000F0B1F900EE104AB8EEC00A20EED2
:102E8000080ABDEEC00A10EE100A01B2012000F0DF
:102E9000A3F900EE103AB8EEC00A20EE080ABDEE23
:102EA000C00A10EE100A01B2022000F095F907B036
:102EB000BDEC028B30BD000023DB793D23DBF93D07
:102EC00023DB793E23DBF93E020009494FF0000085
:102ED00008D0012A09D0022A03D1088A8988084427
:102EE00000B2704788890988F9E7C8894988F6E7F8
:102EF0003400002030B500242DED028B87B09FED0B
:102F0000528A6B4601221E21D62000F01DF9641C56
:102F1000E4B21E2C03D89DF800008007F1D56B4663
:102F200001221121D62000F00FF99DF8000000F0D9
:102F30000E008DF8000004280CD003DC90B10228AC
:102F400010D104E0082808D00C280BD108E09FED30
:102F50003F8A07E09FED3E8A04E09FED3E8A01E054
:102F60009FED3D8A02AB01222321D62000F0ECF830
:102F700001AB01222221D62000F0E6F89DF80800DE
:102F800004AB000204B29DF8040001220443252191
:102F9000D62000F0D9F803AB01222421D62000F07E
:102FA000D3F89DF8100006AB000205B29DF80C00A6
:102FB000012205432721D62000F0C6F805AB0122E7
:102FC0002621D62000F0C0F800EE104A9DF8180027
:102FD0004FF47A74B8EEC00A000203B29DF81400F0
:102FE00020EE080A0343BDEEC00A10EE100A00B23C
:102FF00090FBF4F001B2002000F038F900EE105A16
:10300000B8EEC00A20EE080ABDEEC00A10EE100AA3
:1030100000B290FBF4F001B2012000F027F900EEBD
:10302000103AB8EEC00A20EE080ABDEEC00A10EE53
:10303000100A00B290FBF4F001B2022000F016F981
:1030400007B0BDEC028B30BD00000C4100008C408D
:1030500000008C4100000C4200008C420200094933
:103060004FF0000008D0012A09D0022A03D1C88AF3
:103070004989084400B27047488AC988F9E7888AB4
:103080000989F6E7340000201FB500F02FF8154C31
:1030900001212046FEF73BF92046FEF783F8002188
:1030A0002046FEF774F801214805FEF7A1FA00203A
:1030B000ADF804004BF6FF70ADF806003320ADF814
:1030C00008002015ADF80A000001ADF80C00064814
:1030D000009001212046FEF75AF869462046FEF787
:1030E000ADF81FBD00540040A08601001CB50121B1
:1030F0000220FEF771FA01210220FEF76DFA114C51
:10310000042208212046FDF76BFF042209212046F6
:10311000FDF766FF02218DF8041001228DF80620CC
:10312000A0158DF8051000908DF8072069462046FF
:10313000FDF705FF6015009069462046FDF7FFFE8C
:103140001CBD00000004024008B500920A4601467A
:10315000014800F0CDF808BD0054004010B5FFF75D
:1031600011FEBDE81040FFF7C5BE08B56B46012251
:103170001021D620FFF7E8FF9DF800006B4620F0F5
:10318000FC0040F080008DF8000001221021D620C4
:1031900000F084F86B4601221821D620FFF7D4FFF7
:1031A0009DF800006B4640F038008DF800000122C9
:1031B0001821D62000F072F808BD0000054A28B199
:1031C000012805D0022800D19180704711807047F6
:1031D0005180704734000020054A28B1012805D0ED
:1031E000022800D11182704791817047D1817047C8
:1031F0003400002008B56B4601220F21D620FFF7CE
:10320000A3FF6B4601221121D620FFF79DFF9DF8F9
:1032100000006B4620F0FE0040F080008DF80000BA
:1032200001221121D62000F039F86B460122192124
:10323000D620FFF789FF9DF800006B4640F038006C
:103240008DF8000001221921D62000F027F808BDD2
:10325000054A28B1012805D0022800D151817047C4
:10326000D18070471181704734000020054A28B191
:10327000012805D0022800D1D182704751827047C1
:10328000918270473400002010B5FFF754FDFFF71E
:10329000B1FFBDE81040FFF768BF000008B500921D
:1032A0000A460146014800F013F908BD00540040E9
:1032B00070B506460121FDF754FF0B4C4FF420403A
:1032C000A0610A4D02E0A069401EA0612946304677
:1032D000FDF751FF10B9A0690028F4D13046BDE8D0
:1032E0007040FEF707B800003400002040000300E3
:1032F0002DE9F0411F4615460C4680460123002269
:10330000069E00F043F82946404600F0C1F84046CA
:1033100000F094F801231A462146404600F036F8A2
:103320000024751E0AE0AC42404602D100F00AF8C3
:1033300001E0FFF7BDFF3855641CA4B2B442F2D3DC
:10334000BDE8F08170B506460021FDF70AFF0121B6
:103350003046FDF753FF0B4C4FF42040A0610A4D5F
:1033600002E0A069401EA06129463046FDF703FF38
:1033700010B9A0690028F4D13046BDE87040FDF7CF
:10338000B9BF000034000020400003002DE9F047E1
:103390008A461F46164680460121FDF725FF244C2C
:1033A0004FF42045A561DFF88C9003E0A069401E32
:1033B000A06133D049464046FDF72AFF10B9A06905
:1033C0000028F3D11FB101214046FDF7CAFE324665
:1033D00051464046FDF791FF16B1012E11D023E072
:1033E000A561144D6D1C03E0A069401EA06115D0BD
:1033F00029464046FDF70CFFB0B9A0690028F3D17B
:1034000012E0A5610C4D03E0A069401EA06105D04B
:1034100029464046FDF7AFFE18B105E00120BDE8A2
:10342000F087A0690028EFD1B8F818000020F6E76F
:103430003400002001000010020003002DE9F041DB
:10344000114C07464FF42040A061104E0F4D7C3EBA
:1034500003E0A069401EA0610AD029463846FDF766
:10346000D7FE40B131463846FDF7D2FE18B105E02F
:103470000120BDE8F081A0690028EAD10121384689
:10348000FDF7BCFE0020F4E73400002080000010AF
:103490002DE9F0410C4C07464FF420400E46A06148
:1034A0000A4D02E0A069401EA06129463846FDF79A
:1034B000AFFE10B9A0690028F4D131463846BDE806
:1034C000F041FDF722BF0000340000208000001012
:1034D0002DE9F0411D461446002307461A46069E74
:1034E000FFF754FF21463846FFF7D2FF002405E0DE
:1034F000295D3846FFF7CCFF641CA4B2B442F7D371
:103500003846BDE8F041FFF799BF82B0CDE9000130
:1035100021F0004001909DED000B02B051EC100B2A
:103520007047000070B5074D0446C1B22846FEF74B
:10353000FDFC40212846FEF761FC0028F9D020461A
:1035400070BD000000440040364A10B592ED024ABA
:1035500002F12C03D2ED003A30EEC41ADFED324A0C
:10356000D3ED011A9FED315A41EE243A93ED022A30
:1035700035EE611A2E4C71EE425AC4ED005AD3ED6D
:10358000032AB1EE623A84ED013A84ED023A84ED09
:10359000035A93ED001A43EE241A03EE242A05EE93
:1035A000A41A45EE242A70EE634AB6EE000AC2ED74
:1035B000034A31EE005A82ED041A82ED052A82EDAB
:1035C000065A81EE053A82EE050AB0EE415A82EDC6
:1035D000073A03EE415A43EE243A82ED080A82ED9F
:1035E000091AC2ED0A1A83ED005AB0EE615A00EED4
:1035F000412A03EE615A00EE244A40EE612A83ED2F
:10360000015A83ED022AC3ED032A30EEC40AC2ED4B
:10361000003A82ED024A82ED010AC0ED003A81EDE6
:10362000000A10BDBC0000200AD7233C6F12033BE8
:10363000C0010020FEF77AFBFEF79EF8FDF7D2FBF3
:10364000FEF736F9FEF77AF9FDF76CFEFDF736FA6C
:10365000FFF71AFDFFF718FEFDF7AFFFFCE7456D1A
:10366000756C6174654545505F496E697400000072
:103670004FBB610567ACDD3F182D4454FB21E93F8A
:103680009BF681D20B73EF3F182D4454FB21F93F79
:10369000E2652F227F2B7A3C075C143326A6813CFF
:1036A000BDCBF07A8807703C075C143326A6913CAA
:1036B000C4EB98999999C9BF711623FEC671BCBF16
:1036C0006D9A74AFF2B0B3BF9AFDDE522DDEADBF7E
:1036D0002F6C6A2C44B4A2BF0D5555555555D53F96
:1036E000FF8300922449C23F6E204CC5CD45B73FB1
:1036F000513DD0A0660DB13FEB0D76244B7BA93F29
:1037000011DA22E33AAD903F0A0D5553415254204D
:103710005072696E7466204578616D706C653A20F0
:103720007265746172676574207468652043206CEB
:10373000696272617279207072696E746620667552
:103740006E6374696F6E20746F20746865205553C2
:103750004152540A0D000000783700080000002094
:1037600000010000582400087838000800010020FB
:10377000D00400006824000800BD0105000000001E
:103780000000000001020304060708090000000011
:1037900001020304010203040607080900000000F7
:1037A0000000000000000000000000000000000019
:1037B0000000000000000000000000000000000009
:1037C0000000000000A00000000000000001000058
:1037D00000000000000000000000000000000000E9
:1037E00000000000000000000000000000000000D9
:1037F00000000100020003000400050006000700AD
:10380000080009000A000B000C000D000E000F005C
:10381000100011001200130014001500160017000C
:10382000180019001A001B001C001D001E001F00BC
:103830000000000000000000000000000000000088
:103840000000000000000000000000000000000078
:103850000000000000000000000000000000000068
:103860000000803F00000000000000000000803FDA
:08387000000000000000000050
:040000050800019559
:00000001FF
